:100000000A128A1103280310831603130030031801
:100010000130870007308312031387000310831613
:100020000313003003180130880083120313FF30DC
:10003000880038300A128A114A270A128A110F30B2
:100040000A128A114A270A128A1180300A128A116A
:100050004A270A128A1101300A128A1120270A122D
:100060008A11E830F200FD30F3000A128A115F278E
:100070000A128A11C0300A128A114A270A128A11FA
:100080000A300A128A1120270A128A11E830F20077
:10009000FD30F3000A128A115F270A128A112528FF
:0600A0000A128A1100287B
:100E0000FE00FE1F082F83137E18831700080800BA
:100E10000408FE0007308A007E0882070034593437
:100E200065347334763461346E3474346834003429
:100E30004B3472346934733468346E346134003442
:100E4000F0008312031307143E2F87100715700854
:100E50000A128A1109270A128A118800E830F20062
:100E6000FD30F3000A128A115F270A128A118312D9
:100E7000031307110130F1007108F00770080A121E
:100E80008A1109270A128A110038031D482F492F99
:100E9000252F0800F0008312031307108710071591
:100EA00070088800E830F200FD30F3000A128A1161
:100EB0005F270A128A118312031307110800602F9B
:100EC0000130F2020030031CF303F302FF3073061B
:100ED000031D6C2FFF307206031D6F2F702F602FC4
:020EE000080008
:02400E003A3F37
:00000001FF
